:020000040800F2
:10000000A80D002049010008CB1700084916000878
:10001000C9170008E1010008AD1A0008000000003F
:10002000000000000000000000000000C9180008E7
:100030001502000800000000D1170008CB180008C6
:100040006301000863010008630100086301000800
:1000500063010008630100086301000863010008F0
:1000600063010008630100086301000863010008E0
:10007000E5010008F1010008FD010008090200087F
:1000800063010008630100086301000863010008C0
:1000900063010008630100086301000863010008B0
:1000A00063010008630100086301000863010008A0
:1000B0006301000863010008630100086301000890
:1000C000630100086301000863010008D5170008F8
:1000D00063010008A11A0008630100086301000819
:1000E0006301000863010008630100086301000860
:1000F0006301000863010008630100086301000850
:10010000630100086301000863010008630100083F
:10011000630100086301000863010008630100082F
:10012000630100086301000863010008630100081F
:10013000DFF810D000F042F800480047651E0008C4
:10014000AFF30080A80D002006488047064800470E
:10015000FEE7FEE7FEE7FEE7FEE7FEE7FEE7FEE777
:10016000FEE7FEE72F19000831010008D2B201E0D6
:1001700000F8012B491EFBD270470022F6E710B5AC
:1001800013460A4604461946FFF7F0FF204610BD05
:1001900030B50B46014600202022012409E021FA57
:1001A00002F59D4205D303FA02F5491B04FA02F554
:1001B0002844151EA2F10102F1DC30BD064C074DAA
:1001C00006E0E06840F0010394E807009847103427
:1001D000AC42F6D3FFF7B0FF642900088429000879
:1001E000FEE70000014800F0B1B800005404002010
:1001F000014800F0ABB8000098040020014800F06E
:10020000A5B8000060050020014800F09FB800007C
:100210001C050020704772B6FEE700002DE9F05F74
:1002200090F821100024022903D0042181630124C5
:1002300085E001680A6822F00E020A6001680A6817
:1002400022F001020A603F4E3E4FB215DFF8F4C0C3
:10025000DFF8F090DFF8ECA0DFF8E8B0DFF8E4E0DA
:100260000168783F13011502ACF1640CA9F1500943
:10027000AAF13C0AABF1280BAEF1140E4FF4801832
:10028000B14227D9B9420ED0614512D049451DD09F
:10029000514518D0594518D0714501D1424615E055
:1002A000294EB14201D1012210E0274E1436B1424D
:1002B00001D110220AE0244E2836B14206D0224A4B
:1002C0003C32914201D11A4600E02A461E49091FDC
:1002D0000A602BE0B94213D0614517D0494522D0BE
:1002E00051451DD059451DD0714501D142461AE0F6
:1002F000B14202D14FF0807215E0134EB14201D1EC
:10030000012210E0104E1436B14201D110220AE051
:100310000D4E2836B14206D00B4A3C32914201D1F3
:100320001A4600E02A46074980394A60012180F8D0
:100330002110002180F82010416B01B18847204630
:10034000BDE8F09F80000240080402402DE9F05F04
:10035000C16B0A6801680B68046C4FF0040808FA66
:1003600004F8844D844E854FDFF814C2DFF81492F0
:10037000DFF814A2DFF814B2DFF814E218EA020F73
:1003800065D05FEA437862D50A68920603D40A68AA
:1003900022F004020A60DFF8F0814FF48062016805
:1003A00008F1140813011402414524D9A9420DD0C3
:1003B000B1420FD0B9421AD0614515D0494515D088
:1003C000514501D1120312E0594501D104220EE03A
:1003D000714501D140220AE06D4D1435A94206D085
:1003E0006B4A2832914201D11A4600E02246674901
:1003F000091F0A6029E0A94213D0B14215D0B942C1
:1004000020D061451BD049451BD0514502D14FF446
:10041000800217E0414502D14FF0806212E0594559
:1004200001D104220EE0714501D140220AE0584D6D
:100430001435A94206D0564A2832914201D11A46B3
:1004400000E022464B4908394A60C16A71E04FF02A
:10045000020808FA04F818EA020F70D05FEA8378FD
:100460006DD50A68920606D40A6822F00A020A606C
:10047000012180F82110DFF810814FF4007201682B
:1004800008F1140813011402414524D9A9420DD0E2
:10049000B1420FD0B9421AD0614515D0494515D0A7
:1004A000514501D1120312E0594501D102220EE05B
:1004B000714501D120220AE0354D1435A94206D0FC
:1004C000334A2832914201D11A4600E022462F4990
:1004D000091F0A6029E0A94213D0B14215D0B942E0
:1004E00020D061451BD049451BD0514502D14FF466
:1004F000001217E0414502D14FF0007212E0594559
:1005000001D102220EE0714501D120220AE0204DE6
:100510001435A94206D01E4A2832914201D11A460A
:1005200000E02246134908394A60002180F8201073
:10053000816A00291CD0BDE8F05F0847FFE7082565
:10054000A540154214D01A0712D50A6822F00E02EF
:100550000A6090F84020C36B012101FA02F25A6050
:10056000816380F82110002180F82010016BE0E702
:10057000BDE8F09F080002401C000240300002402D
:1005800044000240580002406C000240080402404F
:100590001C04024030B560B11A4B026814219A4223
:1005A00009D2194B1344B3FBF1F1890001641749D7
:1005B0000AE0012030BD134B5B421344B3FBF1F161
:1005C000890001640F490839C163022180F82110B4
:1005D000136843F6F0718B43F0E901142143D0E92D
:1005E00002452C4321430469214344692143846922
:1005F00021431943116000214163012242770177B1
:10060000084630BD08040240F8FFFDBF000002406C
:1006100070B5044600F018F90546601C02D0044885
:100620000078044400F010F9401BA042FAD370BDDA
:10063000000000202DE9F84FDFF8C891002409F1EF
:10064000040A0AF1040B23460F270BF1040ED1E034
:100650000125A54006EA0502AA4276D1DFF8A8C125
:100660004E68A6EB0C0866452BD00DDC032E34D06B
:1006700005DC36B3012E19D0022E2FD11BE0112E2E
:1006800016D0122E2AD119E0B8F5881F19D006DC31
:10069000B8F5803F15D0B8F5801F1FD111E0B8F52F
:1006A000001F0ED0B8F5041F18D10AE0CB6815E082
:1006B000CB681B1D12E0CB6808330FE0CB680C330E
:1006C0000CE08B682BB1012B4FF0080303D0456180
:1006D00004E0042302E0056100E00023FF2A01D8C2
:1006E000064601E000F104064FEA840501D9A5F1B0
:1006F0002005D6F8008007FA05FC28EA0C0803FA62
:1007000005F548EA0508C6F800804D68ED0070D58B
:100710003E4DAE6946F00106AE61AD6924F00306B8
:1007200005F0010500953A4D06EB050CDCF8085084
:10073000A607360F07FA06F825EA0805DFF8D48081
:10074000404503D14FF0000825E052E0DFF8C880B3
:10075000404502D14FF001081DE0DFF8C080404560
:1007600002D14FF0020816E0DFF8B480404502D114
:100770004FF003080FE0DFF8AC80404502D14FF0A6
:10078000040808E0DFF8A080404502D14FF00508DA
:1007900001E04FF0060808FA06F848EA0508CCF828
:1007A00008804D68D9F80060ED034D4601D5164329
:1007B00000E096432E604D68DAF80060AD035546C0
:1007C00001D5164300E096432E604D68DBF80060CB
:1007D000ED025D4601D5164300E096432E604D685C
:1007E000DEF80060AD02754601D5164300E0964381
:1007F0002E60641C0A681646E2407FF429AFBDE80B
:10080000F88F0000000401400000111000100240A9
:100810000000014000080140000C014000100140B0
:100820000014014000180140001C0140C26821EA88
:1008300002030A4043EA0241016170470AB10161C3
:1008400070470904FBE7000001488068704700001A
:1008500000000020024881680278114481607047DE
:1008600000000020074810B5016841F01001016048
:10087000032000F075F8002000F006F800F024F8DE
:10088000002010BD0020024070B50D4D04464FF40D
:100890007A712878B1FBF0F00A490968B1FBF0F0F1
:1008A00000F0EBFC48B9102C07D200222146501E64
:1008B00000F036F800206C6070BD012070BD0000B3
:1008C000000000200C0000200C4808B5816941F0B0
:1008D00001018161816901F001010091C16941F06B
:1008E0008051C161C06900F08050009004484168A7
:1008F00021F0E06141F00071416008BD001002404C
:1009000000000140002809DB00F01F020121914096
:100910004009800000F1E020C0F80011704700009D
:10092000F0B40E4B1B680C46C3F30223C3F107055A
:10093000042D00D90425191D072901D2002300E048
:10094000DB1E012606FA05F1491E214099409E4012
:10095000761E16403143F0BC01F0BEB80CED00E04D
:10096000064900F0070208684FF6FF03184040EA06
:100970000220034A10430860704700000CED00E0BD
:100980000000FA05704700002DE9F0470F4605000A
:1009900061D0434E306800F00700B84209D2306899
:1009A00020F0070038433060306800F00700B8429C
:1009B00051D128683B4C810712D5400703D56068A8
:1009C00040F4E06060602878000703D5606840F478
:1009D000605060606068A96820F0F00008436060C3
:1009E0002878C00728D06868012810D0216802281C
:1009F00010D0890700292EDA616821F00301014334
:100A00006160FFF721FF804641F288390DE02168DF
:100A10008903EFE78901EDE7FFF716FFA0EB080177
:100A2000494502D90320BDE8F0876068696800F095
:100A30000C00B0EB810FEFD1306800F00700B84236
:100A40000BD9306820F0070038433060306800F080
:100A50000700B84201D00120E5E72878400705D516
:100A60006068E96820F4E060084360602878000767
:100A700006D56068296920F4605040EAC1006060D2
:100A800000F03EF86168084AC1F30311515CC840A8
:100A90000649086006480068FFF7F6FE0020C2E736
:100AA00000200240001002402C2800080C0000200A
:100AB0000400002001490120C86470470000424240
:100AC0000448054900684968044AC1F30221515CA1
:100AD000C84070470C000020001002403C2800086D
:100AE0000448054900684968044AC1F3C221515CC1
:100AF000C84070470C000020001002403C2800084D
:100B000012A185B00FC98DE80F0014A0144A006827
:100B100004905168134801F00C03042B10D0082BEB
:100B20000ED1C1F38343C9031DF803000AD55168F0
:100B300004AAC1F34041515C0A4A5043B0FBF1F0B2
:100B400005B0704708494843FAE70000020304056E
:100B5000060708090A0B0C0D0E0F10100102000009
:100B60000010024000127A0000093D0010B5044C4C
:100B7000A068000603D5FFF705FF8020A07210BD16
:100B8000001002402DE9F84F040070D02078C04DCD
:100B9000C00749D06868C0F38100012807D06868A1
:100BA000C0F38100022809D16868C00306D528680F
:100BB000800339D560680028E7D035E06068B0F57B
:100BC000803F0BD010B1B0F5A02F11D0286820F4D1
:100BD00080302860286820F4802002E0286840F4F3
:100BE00080302860606890B1FFF72EFE06460AE06C
:100BF000286840F480202860F0E700BFFFF724FE5B
:100C0000801B642873D828688003F7D50CE0FFF7B1
:100C10001BFE064605E000BFFFF716FE801B64289A
:100C2000F0D828688003F7D420789A4E80074FF0D8
:100C300001094FF0000839D5686810F00C0F07D093
:100C40006868C0F38100022809D16868C00306D42F
:100C50002868800714D52069012808D110E0206990
:100C6000B0B1C6F80090FFF7EFFD074605E00AE1D6
:100C7000FFF7EAFDC01B0228C4D828688007F7D513
:100C80002868616920F0F80040EAC10028600DE0A2
:100C9000C6F80080FFF7D8FD074604E0FFF7D4FD53
:100CA000C01B022823D828688007F7D420780007C3
:100CB0002CD57948A169D9B1C0F80090FFF7C4FDDF
:100CC000074604E0FFF7C0FDC01B02280FD8686A82
:100CD0008007F7D571484FF4FA510068B0FBF1F086
:100CE000009000BF0098411E0091FAD20EE080E013
:100CF000C0F80080FFF7A8FD074604E0FFF7A4FD59
:100D0000C01B022875D8686A8007F7D4207840078E
:100D100060D5E8690027C00008D4E86940F0805039
:100D2000E861E869012700F0805000905C480168A4
:100D3000C90513D40168834641F480710160FFF74F
:100D400083FD824606E000BFFFF77EFDA0EB0A00B0
:100D500064284ED8DBF80000C005F5D5E06801280E
:100D60000AD008B1052813D0286A20F001002862B3
:100D7000286A20F0040002E0286A40F0010028629E
:100D8000E06841F2883B98B1FFF75EFD82460BE0D8
:100D9000286A40F004002862EEE700BFFFF754FD28
:100DA000A0EB0A0159455AD8286A8007F6D50CE00D
:100DB000FFF74AFD824605E0FFF746FDA0EB0A017A
:100DC00059454CD8286A8007F6D41FB1E86920F04D
:100DD0008050E861E06988B36968C1F38101022944
:100DE00044D00228C6F8608004D0FFF72DFD0446E9
:100DF00038E034E0FFF728FD074604E0FFF724FD64
:100E0000C01B02282BD828688001F7D4206AB0F5CF
:100E1000803F05D16868A16820F40030084368600D
:100E2000D4E908010843696821F474110843686033
:100E3000C6F86090FFF708FD044606E025E000BF15
:100E4000FFF702FD001B022809D828688001F7D5AA
:100E50001BE000BFFFF7F8FC001B022802D90320AB
:100E6000BDE8F88F28688001F4D40EE00128F7D09F
:100E70006868226A00F48031914204D1616A00F40A
:100E80007010884201D00120EAE70020E8E7000066
:100E90000010024000004242800442420C00002048
:100EA000007000407047000038B504460068426892
:100EB0008168C9434B0606D5CB0704D1D3435B06F3
:100EC00001D4216C05E08B0708D4D3431B0605D45D
:100ED000616C01B02046BDE8304008478B0601D563
:100EE0004B0646D4D3439B0643D44B060AD494F80E
:100EF0005130032B3ED0636D43F004036365C36838
:100F000083680093890609D4616D41F00101616530
:100F100081680091016821F040010160606D002846
:100F200027D02068416821F0E0014160012084F869
:100F30005100900722D02068416821F003014160F0
:100F4000104DE06C40B14563E06CFFF767F918B1F4
:100F5000606D40F040006065A06C002809D04563DA
:100F6000A06CFFF75BF9002803D0606D40F04000F3
:100F7000606538BDC1688068009038BD2046FFF7C5
:100F800091FF38BDE117000870B5040009D0606A10
:100F9000002540B125616561A56294F8510040B11A
:100FA0000CE0012070BD6068B0F5827FF4D0E5618F
:100FB000F2E784F85050204600F040F8022084F810
:100FC00051002068016821F040010160A08821895A
:100FD00000F4827001F404410843A18901F4006126
:100FE0000843217C01F002010843217D01F0010149
:100FF0000843218B01F400710843217F01F038017F
:10100000084394F8201001F080010843218D01F479
:101010000051084321680860A069042101EA1040DA
:10102000216848602068C16921F40061C16165657B
:10103000012084F85100002070BD0000F0B585B09B
:1010400000240646009401940294039400682C49FD
:10105000884253D12B48816941F480518161816973
:1010600001F480510491816941F00401816180693A
:10107000254D00F004000490A02000900220019073
:101080000320039069462846FFF7D4FA4020CDE9B3
:101090000004694628460294FFF7CCFA1C4D1B4811
:1010A0008027C5E90004C5E902472C616C61AC6189
:1010B0002846EC61FFF76EFA08B1FFF7ACF8F5646B
:1010C0006E62134D11484435143001C5102091C58E
:1010D0000F4845F8104944306C61AC61EC61FFF792
:1010E00059FA08B1FFF797F8B564002201212320CF
:1010F0006E62FFF715FC2320FFF704FC05B0F0BD7E
:101100000030014000100240000801401C00024075
:10111000540400202DE9F84F044690F850000027B1
:101120001D461646894601280DD04FF0010B84F864
:1011300050B0FFF789FB804694F85100BA46012869
:1011400004D0022793E00220BDE8F88FB9F1000F28
:1011500073D0002E71D0032084F85100C4F854A03D
:10116000C4F83090A686E686C4F838A0A4F83CA05F
:10117000A4F83EA0C4F844A0C4F840A0A068B0F50C
:10118000004F09D12068016821F04001016020680A
:10119000016841F48041016020680168490603D478
:1011A000016841F040010160E068B0F5006F6068DF
:1011B00003D030B3012E24D041E008B1012E1CD160
:1011C000206B21680088C86006E020688168890774
:1011D00009D5216B0988C160206B801C2063E08EDB
:1011E000401EE08609E0FFF72FFBA0EB0800A842B5
:1011F00002D3681C01D031E07DB3E08E0028E4D139
:1012000020E0206B21680078087306E02068816880
:10121000890709D5216B09780173206B401C206375
:10122000E08E401EE0860AE0FFF70EFBA0EB080010
:10123000A84203D3681C02D010E017E06DB1E08E25
:101240000028E3D142462946204600F0D1FA08B1F1
:1012500020206065A06818B106E0FFE7032706E0DC
:101260002068C16880680090606D00B1012784F833
:1012700051B084F850A0384666E710B5401EB0F172
:10128000807F01D3012010BD4FF0E02460610F2169
:10129000601700F021FC0020A061072020610020E1
:1012A00010BD704770B5026804461068D168536974
:1012B00010F00F0F52D003F0010501F490762E4389
:1012C0005FD0C20705D0CA0503D5E26B42F0010228
:1012D000E263420705D5DA0703D0E26B42F002026F
:1012E000E263820705D5DA0703D0E26B42F004021D
:1012F000E263020707D501F020022A4303D0E26B24
:1013000042F00802E263E26B002A33D0800604D583
:10131000880602D5204600F021FB20684069E16B79
:10132000C0F38010090700D428B3204600F008FB62
:101330002068416949061AD5416921F0400141619F
:10134000606BA0B12D494163606BFEF767FF002819
:1013500010D0606B416BBDE870400847830610D524
:101360008B060ED52046BDE8704000F0F7BA204647
:10137000FFF797FF70BD2046FFF793FF0020E06363
:1013800070BD03062BD50B0629D594F8390021280A
:10139000F6D1A068B0F5805F01D12069B0B1206AB4
:1013A000411C2162216800784860E08C401E0004E6
:1013B000000CE084E4D12068C16821F08001C160A4
:1013C0002068C16841F04001C16070BD206A00889A
:1013D000C0F308005060206A801C2062E5E74006E8
:1013E000F3D54806F1D5D168204621F04001D160FF
:1013F000202184F8391000F026F970BD3119000859
:1014000070B5040004D094F83900002510B106E04E
:10141000012070BD84F83850204600F023F82420C5
:1014200084F839002068C16821F40051C160204669
:1014300000F0DAFA2068016921F490410161206826
:10144000416921F02A0141612068C16841F40051DD
:10145000C160E563202084F8390084F83A00002058
:1014600070BD0000F0B585B00024064600940194DC
:101470000294039400682D49884254D12C48816914
:1014800041F480418161816901F480410491816965
:1014900041F0040181618069264D00F00400049050
:1014A0004FF40070009002200190032003906946E1
:1014B0002846FFF7BFF82815CDE9000469462846FD
:1014C0000294FFF7B7F81D4D1B488027C5E90004BB
:1014D000C5E902472C616C61AC612846EC61FFF7FD
:1014E00059F808B1FEF797FE75636E62134D124806
:1014F0004435143801C5102091C5104845F81049ED
:1015000044306C61AC61EC61FFF744F808B1FEF760
:1015100082FE35630022012125206E62FFF700FA6A
:101520002520FFF7EFF905B0F0BD000000380140BD
:101530000010024000080140580002401C05002035
:1015400090F83A30202B22D1F9B1F2B190F838302E
:10155000012B1CD081628285C2850021C1632222B9
:1015600080F83A2080F838100168CA6842F4807226
:10157000CA6001684A6942F001024A610068C168B4
:1015800041F02001C1600020704701207047022017
:10159000704700007CB500681449884225D1144D7D
:1015A0003C245023022218211248CDE9004500F0C6
:1015B00033FD104800F06EFD0028F2D14FF4807129
:1015C0000D48FFF733F94FF4167209490B48FFF73E
:1015D000B7FF0BA10B4800F06BFA02B082B2BDE876
:1015E00070400849054800F00FB87CBD0038014044
:1015F000100100206803002000080140DC040020E6
:10160000310000001000002090F83930202B18D154
:10161000A9B1A2B190F83830012B12D001628284B6
:10162000C2840021C163212280F8392080F838105B
:101630000068C16841F08001C1600020704701204E
:101640007047022070477047FEE70000154808B554
:10165000416941F0010141614069002200F001004F
:10166000009011460C20FFF75BF90C20FFF74AF9B8
:10167000002211460D20FFF753F90D20FFF742F924
:10168000002211460E20FFF74BF90E20FFF73AF922
:10169000002211460F20FFF743F9BDE808400F2054
:1016A000FFF730B9001002402DE9F04186B0002468
:1016B00021480094019402940394816941F020012F
:1016C0008161816901F020010491816941F0040187
:1016D0008161816901F004010491816941F0100187
:1016E00081618069154F00F010004FF4E07504909F
:1016F000002229463846FFF7A1F8DFF84480BE15DE
:10170000002231464046FFF799F80320CDE9024018
:1017100000950125694601953846FEF78BFF0220AA
:10172000CDE90240CDE9006569464046FEF782FFFB
:1017300006B0BDE8F081000000100240001001403A
:1017400000080140104810B50E4901604FF4827145
:10175000416000218160C1604FF400720161C0E905
:1017600005122022C0E90721416281620A21C1627B
:10177000FFF70AFC002803D0BDE81040FEF74BBD80
:1017800010BD000000300140FC0300200C4810B5E3
:101790000A4901600B494160002181600C22C1604F
:1017A000C0E904128161C161FFF72AFE002803D05D
:1017B000BDE81040FEF72FBD10BD0000003801400D
:1017C000DC04002060E31600FEE7FFF7CFF9FEE738
:1017D000704700000148FFF767BB0000FC030020D2
:1017E00010B5406A0021C187C186FFF75BFB10BDC1
:1017F00038B50B46009204460022802100F008F81C
:10180000002804D0606D40F020006065032038BDE2
:101810002DE9F8431E46914688460446089DFFF789
:1018200013F8401B351AFFF70FF8074625480068E4
:10183000C0F3CB30684338E0701C37D0FFF704F8B2
:10184000C01BA84203D215B1009860B32CE02068F9
:10185000416821F0E00141606068B0F5827F0BD102
:10186000A068B0F5004F02D0B0F5806F04D12068B9
:10187000016821F040010160A06AB0F5005F09D164
:101880002068016821F4005101602068016841F47A
:1018900000510160012084F85100002084F85000BC
:1018A0000320BDE8F8830025401E00902068816871
:1018B00038EA010004D000214945BDD10020F0E7FD
:1018C0000121F9E70C0000207047FEF7C3BF30B5D7
:1018D0008FB028216846FEF750FC14210AA8FEF7B5
:1018E0004CFC01210804CDE90010002402940225DB
:1018F0000491CDE907504FF4E01009906846FFF7D6
:1019000041F908B172B6FEE70F20CDE90A054FF4A0
:101910008060CDE90C4002210AA80E94FFF734F84C
:1019200008B172B6FEE7FFF7C5F80FB030BD7047DB
:1019300010B5406A0021C185C184FFF7B2FC10BD1B
:101940000168CA6822F49072CA6001684A6922F08C
:1019500001024A61202180F83A10704710B590F8D2
:101960003A10222901D0022010BD82684FF4805322
:101970009A4201D1016921B1816A9A421BD04AB1D0
:101980000AE00268816A5268C2F308020A80816A2A
:10199000891C08E0026972B10268526802F07F0295
:1019A0000A70816A491C8162C18D491E0904090CB3
:1019B000C18503D016E002685268F1E70168CA6881
:1019C00022F02002CA600168CA6822F48072CA60EC
:1019D00001684A6922F001024A61202180F83A1028
:1019E000FFF7D8FD002010BD70B5044600680169FE
:1019F000E26821F44051114301612169A068084364
:101A0000616908432168CA6841F20C639A43024342
:101A1000CA6020684169A26921F4407111434161A3
:101A20001E492068884202D1FFF75AF801E0FFF70B
:101A300047F800EBC00101EB0012606864218000F0
:101A4000B2FBF0F3B3FBF1F36FF018067343B2FB94
:101A5000F0F5B2FBF0F605EB8305322303EB051539
:101A6000B5FBF1F5B6FBF1F605F0F00505EB061553
:101A7000B2FBF0F6B2FBF0F0B0FBF1F06FF0180241
:101A8000504306EB800003EB0010B0FBF1F021683F
:101A900000F00F002844886070BD0000003801404D
:101AA0000148FFF7FFBB0000DC040020FEE7000058
:101AB0000FB4084B10B504A902AA039800F02CF843
:101AC000044602A9002000F0C8F9204610BC5DF8C9
:101AD00014FB00005B1E00080907090E002804DB48
:101AE00000F1E02080F80014704700F00F0000F1D2
:101AF000E02080F8141D704702E008C8121F08C1DA
:101B0000002AFAD170477047002001E001C1121F7E
:101B1000002AFBD1704700002DE9FF4F8BB08846AB
:101B20000546002606E025280BD0DDE90D1290477A
:101B30006D1C761C28780028F5D10FB03046BDE822
:101B4000F08F0024A146A2460122AE4900E00443E2
:101B500015F8013F203B02FA03F00842F7D128783C
:101B60002A2810D06FF02F022878A0F1300109291F
:101B700015D809EB890102EB410144F0020400EBA6
:101B800001096D1CF0E758F8041B5FEA010903D551
:101B900044F40054C9F1000944F002046D1C287893
:101BA0002E2817D115F8010F44F004042A280ED06E
:101BB0006FF02F022878A0F1300109290AD80AEB2A
:101BC0008A0102EB410100EB010A6D1CF2E758F8B3
:101BD00004AB6D1C28786C280FD006DC4C2817D07D
:101BE00068280DD06A2814D104E0742810D07A280F
:101BF0000FD10DE044F400140AE044F4801401E035
:101C000044F440146978814202D104F580146D1CBB
:101C10006D1C2878692865D006DC00288DD06328E3
:101C200027D0642806D15DE06E2808D073282AD01A
:101C3000752877D0DDE90D129047761CE0E0C4F3FB
:101C40000250022809D003280DD0D8F8001004282B
:101C50000DD00E6008F10408D2E0D8F80010F21799
:101C6000C1E90062F6E7D8F800100E80F2E70E70C6
:101C7000F0E718F8041B8DF8001000208DF8010023
:101C8000EB46012003E058F804BB4FF0FF3061073A
:101C90004FF0000701D40AE07F1C57450DDA874258
:101CA000FADB1BF807100029F6D106E07F1C8742FB
:101CB000FCDB1BF807100029F8D1DDE90D23A9EBA7
:101CC00007008146214600F0B1F83044C61904E00F
:101CD000DDE90D121BF8010B90477F1EF8D221465B
:101CE000484688E058F8040BC4F302514FF00A0B41
:101CF000032900D100B2042900D140B2002802DA41
:101D000040422D2102E0210505D52B218DF824101C
:101D1000012104E006E0E10710D02021F6E708AF3A
:101D2000089113E058F8040BC4F302514FF00A0B6A
:101D3000032900D180B2042900D1C0B20021EEE70E
:101D40005946FEF725FA303107F8011D0028F7D172
:101D5000ADEB070000F1200B600702D524F48034BE
:101D600001E04FF0010ADA4502DDAAEB0B0000E0CA
:101D70000020824600EB0B0108980144A9EB01000A
:101D80000A90E00306D4DDE90D2321460A9800F00D
:101D90004DF806444FF0000908E009A911F80900C0
:101DA000DDE90D12904709F10109761C0899894572
:101DB000F3DBE0030CD5DDE90D2321460A9800F0A2
:101DC00035F8064404E0DDE90D1230209047761C1A
:101DD000BAF10001AAF1010AF5DC05E0DDE90D1216
:101DE00017F8010B9047761CBBF10001ABF1010B1A
:101DF000F4DC0A982146DDE90D2300F005F80644DD
:101E00006D1C97E6092801002DE9F04104460025E4
:101E10001E461746880404D405E039462020B04702
:101E20006D1C641EF9D52846BDE8F0812DE9F0410E
:101E3000044600251E469046C80301D5302700E021
:101E40002027880404D505E041463846B0476D1C7C
:101E5000641EF9D52846BDE8F0810A68531C0B6062
:101E600010707047FEF7FEFCFFF731FDFFF71CFC1A
:101E7000FFF7ECFBFFF766FCFFF788FC4FF41672E8
:101E80000A490B48FFF75CFB0A4B0B4A0B490C480D
:101E900000F064F90A4800F0A9FA0021084800F0AF
:101EA000B5FA074800F00EF8FEE700001001002028
:101EB000DC040020A127000895240008442800081D
:101EC0006803002001680A7C90F83810406B514389
:101ED000C900FEF752B900003FB581B0044690F842
:101EE0008C00089900283AD0BDF81000002836D0A0
:101EF000012811D9022902D0032907D00CE0BDF82E
:101F00000820101A401CADF8080005E0BDF80C20B0
:101F1000101A401CADF80C0011F0010521D0B4F8E6
:101F20004810BDF80800814219D8B4F84A1081421F
:101F300015D9B4F84E30B4F84C2004A90DF10C00BA
:101F400000F05FF900280AD00095206BBDF8103032
:101F5000BDF80C208568BDF808102046A84705B0DC
:101F600030BDB4F84C10BDF80C008142F7D8B4F87D
:101F70004E108142F3D9B4F84A30B4F8482004A98D
:101F800002A8DDE72DE9FF4F81B090F89270DDF8EF
:101F900038901D46884606469FB100208346039828
:101FA0004146401C80B2009008EB050083B23046E9
:101FB000039A00F057F800282BD001244FF0000AB4
:101FC00023E00120EAE700BF99F80000204202D098
:101FD00086F8927004E096F8910048B986F892B0BD
:101FE0000123CDF800A041463046039AFFF774FF65
:101FF00008F101001FFA80F8600010F0FF0402D120
:10200000012409F101096D1EADB2002DDCD186F865
:10201000927005B0BDE8F08F2DE9F84F8246DDE9FA
:102020000A57D81DC0F3CC08501980B21C46009046
:10203000081983B216468946504600F013F8002866
:102040000ED00BE023463246494650460097FFF734
:1020500099FF761C6D1E4744B6B2ADB2002DF1D18A
:10206000BDE8F88F70B50D461E460446B0F84E1018
:10207000B0F84C00049B00F0F3F8002809D0B4F845
:102080004A10B4F8480033462A46BDE8704000F0D4
:10209000E7B870BD70B5044600F03CF994F839001B
:1020A00094F838100844C5B22068407CA84204D88F
:1020B000204600F0A3F9002070BD94F8930010B101
:1020C0002046FFF7FFFE2946204600F002F80120D7
:1020D00070BD10B5044680F83910006B01682046C9
:1020E0008847206B41682046BDE810400847000043
:1020F0000149C165704700005D2200080021A0F879
:102100005010A0F854104FF6FF71A0F85210A0F82C
:102110005610016B4968084770B5044600250498BD
:10212000A565E362616384F8382084F8395084F847
:102130006D5084F89150012184F8921084F8931026
:1021400020630168204688472046FFF7D7FF2046D6
:10215000FFF7CEFF84F8705070BD00007CB50C46D0
:10216000009313460546084A084900F057F901A8AC
:1021700000F0CAF80146064B00949DF8042028465A
:10218000FFF7CAFF7CBD0000212500089926000842
:102190007922000838B50446B0F856000090B4F82B
:1021A0005230B4F85420B4F850102046FFF75AFFCC
:1021B00018B3012084F88C00B4F84810B4F850002B
:1021C000814201D2A4F84800B4F84A10B4F8520091
:1021D000814201D9A4F84A00B4F84C10B4F8540074
:1021E000814201D2A4F84C00B4F84E10B4F8560065
:1021F000814201D9A4F84E0038BD002084F88C003B
:1022000038BD30B504880D882544ADB2AC4205D93F
:102210009C4202D25D1EADB200E014469C4201D247
:10222000954201D8002030BD944200D214469D4210
:1022300000D91D460480281B0880012030BD38B518
:10224000C58F049C0094521BC46A92B2A04738BD4B
:1022500038B5049C0094FFF7F2FF38BD00207047AA
:102260008A4205D2834201D89A4203D9012070479D
:102270008342F9D800207047F0B502F00706012428
:10228000B440002590F892E0E7B2DDF814C02C4687
:10229000BEF1010F01D83D4600D03C46076822F050
:1022A0000702BCF1000F3F7C07FB02F7BAB2476B95
:1022B0003A44114409D108785B1E284360401B044E
:1022C00001F8010B1B0CF6D1F0BD0A78761C2A43ED
:1022D0006240A3F101030A7016F007069BB206D014
:1022E0006A06150E6206140E002BEED1F0BD428F69
:1022F000114490F89220012A03D800BF4FF0010545
:10230000F2D04FF00104EFE7082101700048704758
:10231000A40500202DE9F843064690F8387090F89F
:102320003950006800244FF6FF7890F8119031681A
:1023300030462A460B7C716B04FB03FC1FFA8CFCB5
:1023400008EACC0C61440091002100F040F8641CC4
:102350006D1CE4B2EDB2BC4201D24D45E7D3BDE8FD
:10236000F883F0B590F838204FF6FF75036805EA5A
:10237000C2018187197C05EAC101418790F8394083
:1023800005EAC401C1875E7CA718B74201D9321B98
:1023900092B205EAC20220F8401F11444180998A96
:1023A0008180D98AC180F0BDFFF7DBBF0021A0F892
:1023B0004810B0F84410A0F84A10B0F84010A0F847
:1023C0004C10B0F84210A0F84E10FFF7E3BE1CB559
:1023D0008DF805108DF80620049C8DF804300094CB
:1023E000012284686B460F21A0471CBD30B484686D
:1023F0000023A44630BC1A460A21604730B48468E2
:102400000023A44630BC1A461021604730B48468CB
:102410000023A4460A4630BC0B2160472DE9F04159
:1024200015460E460446069F00F00AF86761A6604E
:10243000C4E903532046BDE8F04100F013B80000A2
:10244000002140F8081B064A026042608260C260B8
:10245000C17681770161FF21017780F820107047F4
:102460009D27000830B484680023A44630BC1A4677
:102470000921604713B50122046901AB1721A04768
:102480001CBD30B404690023A4460A4630BC202198
:1024900060470000F8B515460446182927D004DC2B
:1024A00014291BD0172904D105E019292ED0202981
:1024B00019D00020F8BD1E4642F20F740BE03078B0
:1024C0008DF800002346012269461448FEF722FEDB
:1024D0006D1EEDB2761C002DF1D115E0206849216A
:1024E0004278204600E04A2100F09AF90CE020688A
:1024F00049210278204600F093F92068002365699D
:1025000082782C212046A8470120F8BD20680023AE
:102510006569C2782C212046A847DFE7FC0300202C
:102520002DE9F0410546A1F114001F4616460C4660
:1025300006281CD2DFE800F01203030E121200215D
:102540002846FFF79EFF31462846FFF793FF0120FC
:10255000BDE8F08101212846FFF793FF3B46324654
:1025600021462846D5F810C0BDE8F041604700205C
:10257000EEE730B4C4680023A44630BC1A461921E3
:10258000604730B4C4680023A4460A4630BC162114
:10259000604730B4C4680023A4460A4630BC152105
:1025A000604730B4C4681346A4460A4630BC1721BD
:1025B00060470000F8B50C464FEA000514F8011B0F
:1025C000182924D00EDC152919D0162917D017295F
:1025D00023D120788DF800006A4601212846FFF7B4
:1025E000E0FF0AE0192912D0FE2916D122788DF8D1
:1025F00000202921284600F013F9641CDEE7227828
:102600008DF80020EE6800232846B047F5E7002348
:10261000EE681A462846B047D0E7F8BD30B4C46823
:102620000023A44630BC1A461821604770B5002329
:10263000456904461A462821A8470023E5681A463A
:1026400014212046A84701224B21204600F0E8F83B
:10265000206829210279204600F0E2F800224B216F
:10266000204600F0DDF8206829210279204600F09C
:10267000D7F801224B21204600F0D2F8206829210A
:1026800042792046BDE8704000F0CAB80160897CFC
:1026900080F822107047000070B50C46054600F027
:1026A00019F890B9092C0BD00A2C01D0002070BD6C
:1026B0002846FFF7BBFF06492846FFF77BFF04E0EB
:1026C00003492846CC31FFF7E1FF012070BD00002F
:1026D000682800082DE9F0411E46144605460B29DE
:1026E00008D00D290ED00E291ED00F2927D000208A
:1026F000BDE8F0811AB12849FFF75CFF4AE026499E
:10270000491FF9E74AB124490C31FFF753FF286804
:1027100090F8130085F822003CE01F49491DFFF79F
:1027200049FF2868807CF5E7FFF778FF812128467C
:10273000FFF72FFF21462846FFF723FF27E0FFF78B
:102740006DFF707995F8221001EBC000C7B24021EF
:102750002846FFF71EFF102040EA17112846FFF712
:1027600018FF07F00F012846FFF70BFFB07940F084
:10277000B0012846FFF705FF30793268C006010E28
:102780002846FFF70EFF641E14F0FF04F4D128461C
:10279000FFF7EFFE0120ABE7552800080020704747
:1027A00070B500231D4C28392C2931D2DFE801F007
:1027B0003316333333303030303030303030303027
:1027C00030303030303030303333333333333333F1
:1027D000331A1F24333333332D2D2D2D1046FDF79F
:1027E00017FF18E0012A00D0AAB9402109E0012A08
:1027F00000D082B9802104E04FF48071012A00D01A
:102800004AB92046FEF71AF805E080F8273002E0C2
:10281000012180F82710012070BD00000010014048
:1028200030B444690023A44630BC60470000000077
:102830000000000001020304060708090000000070
:1028400001020304A9230008AD2300085122000857
:102850001815AF19FF1815AE19FF1815A115C819CD
:10286000FF1815A015C019FF1815AE15D51680153F
:10287000A8163F15D316001540158D1614152016F1
:102880000015A115C815DA1612158116CF15D9161F
:10289000F115DB1640152E15A415A619FF1815AE57
:1028A00015D5168015A8163F15D316001540158DA1
:1028B00016141520160015A115C815DA1612158163
:1028C00016EF15D916A115DB1600152E15A415A6A1
:1028D00019FF1815AE15D5168015A8163F15D31675
:1028E000001540158D16141520160015A115C815D4
:1028F000DA1602158116CF15D916F115DB1640151B
:102900002E15A415A619FF1815AE15A415D5165029
:1029100015A8163F15D31600154015AD168B15D901
:10292000162215DB16351532158116FF15A615DA98
:10293000161219FF0001140A6464323200127A0080
:102940000004289610080000800040000001140ACE
:102950006464323200093D00030428961008020224
:1029600080004000842900080000002010000000C2
:10297000F81A00089429000810000020980D0000A3
:10298000081B00080100000010000000000000000B
:042990000024F4002B
:0400000508000131BD
:00000001FF
